:100000000C942A000C943F000C943F000C943F0089
:100010000C943F000C943F000C943F000C943F0064
:100020000C943F000C943F000C943F000C943F0054
:100030000C943F000C943F000C943F000C943F0044
:100040000C943F000C943F000C943F000C943F0034
:100050000C943F0011241FBECFE5D8E0DEBFCDBF1A
:1000600010E0A0E6B0E0E2ECF2E002C005900D92F4
:10007000AA36B107D9F70E94D2000C945F010C9404
:1000800000009BB39F70282F207F922B9BBBC198B1
:10009000C39AEFE3FFE13197F1F700C00000C39886
:1000A000EFEDFEE23197F1F700C000002BB32F70A7
:1000B000F0E18F9FC0011124822B8BBBC39A8FE389
:1000C0009FE10197F1F700C00000C398EFEDFEE259
:1000D0003197F1F700C0000008959BB39F70282F5F
:1000E000207F922B9BBBC19AC39AEFE3FFE131972C
:1000F000F1F700C00000C398EFEDFEE23197F1F791
:1001000000C000002BB32F70F0E18F9FC0011124BD
:10011000822B8BBBC39A8FE39FE10197F1F700C05D
:100120000000C398EFEDFEE23197F1F700C0000048
:100130000895CF93DF93EC018881882331F02196D5
:100140000E946D0089918111FBCFDF91CF910895BD
:1001500081E00E9441008FE39FE10197F1F700C029
:10016000000080E80E94410008958FEF8ABB87BBA2
:10017000C2988FEF9CE70197F1F700C0000083E37E
:100180000E94410082E30E94410088E20E944100F7
:100190008CE00E94410086E00E94410081E00E94C4
:1001A00041000895CF93DF93CDB7DEB7C456D10990
:1001B0000FB6F894DEBF0FBECDBF0E941B018FE9C2
:1001C0009FE00197F1F700C000000E94B5008FE9A1
:1001D0009FE00197F1F700C0000080E80E94410015
:1001E00080E690E00E9499009FEF23ED80E391501C
:1001F00020408040E1F700C000000E94A80080E895
:100200000E94410086E690E00E942C018FE99FE069
:100210000197F1F700C00000CE0101960E943B015A
:100220008FE99FE00197F1F700C00000CE01019631
:100230000E949900FFCF88E089B98AB188618AB9A4
:1002400080B5866880BD08955D9BFECF8CB908950A
:100250005F9BFECF8CB10895CF93DF93EC01888133
:10026000882331F021960E94240189918111FBCFCE
:10027000DF91CF910895EF92FF920F931F93CF9349
:100280007C010E942801F70180838A3061F0C0E080
:10029000CF5F87010C0F111D0E942801F801808398
:1002A0008A30B1F701C0C0E0CF5FF701EC0FF11D5C
:1002B0001082CF911F910F91FF90EF900895F894C5
:0202C000FFCF6E
:0A02C20068656C6C6F004154000089
:00000001FF
